:020000021000EC
:10C000000000022009C3010031C3010033C3010055
:10C0100035C3010037C3010039C30100000000002F
:10C020000000000000000000000000003BC3010011
:10C030003DC30100000000003FC3010041C30100F7
:10C04000CDF3010043C3010005FD010043C301001E
:10C0500043C3010043C3010001F8010043C30100D1
:10C0600043C3010043C3010043C3010043C30100B4
:10C0700043C3010043C3010043C3010043C30100A4
:10C0800043C30100B1DF010043C3010043C301000A
:10C0900043C3010043C30100C930020043C3010090
:10C0A00043C3010043C3010043C3010043C3010074
:10C0B00043C3010043C30100000000000000000072
:10C0C00043C3010043C3010043C3010043C3010054
:10C0D00043C3010043C3010043C3010043C3010044
:10C0E00043C3010000000000000000000000000049
:10C0F0000000000043C301000000000043C3010032
:10C10000000000000000000000000000000000002F
:10C11000000000000000000000000000000000001F
:10C12000000000000000000000000000000000000F
:10C1300000000000000000000000000000000000FF
:10C1400000000000000000000000000000000000EF
:10C1500000000000000000000000000000000000DF
:10C1600000000000000000000000000000000000CF
:10C1700000000000000000000000000000000000BF
:10C1800000000000000000000000000000000000AF
:10C19000000000000000000000000000000000009F
:10C1A000000000000000000000000000000000008F
:10C1B000000000000000000000000000000000007F
:10C1C000000000000000000000000000000000006F
:10C1D000000000000000000000000000000000005F
:10C1E000000000000000000000000000000000004F
:10C1F000000000000000000000000000000000003F
:10C200000348044B834202D0034B03B118477047E5
:10C210004027002040270020000000000548064B72
:10C220001B1AD90F01EBA301491002D0034B03B134
:10C2300018477047402700204027002000000000DA
:10C2400010B5064C237843B9FFF7DAFF044B13B15E
:10C250000448AFF300800123237010BD4027002065
:10C26000000000009854020008B5054B1BB10549B9
:10C270000548AFF30080BDE80840FFF7CFBF00BF1F
:10C28000000000004427002098540200A3F5803AE3
:10C29000704700BF174B002B08BF134B9D46FFF79D
:10C2A000F5FF00218B460F461348144A121A07F077
:10C2B000D6F90E4B002B00D098470D4B002B00D029
:10C2C00098470020002104000D000D48002802D0EE
:10C2D0000C48AFF3008007F011FA2000290004F0A9
:10C2E00083FE07F093F800BF000008000000000084
:10C2F0000000000000000220402700201839002024
:10C3000000000000000000000649074A074B9B1A86
:10C3100003DD043BC858D050FBDC02F01BFDFFF7E7
:10C32000B9FF0000A8550200082600204027002081
:10C33000FEE7FEE7FEE7FEE7FEE7FEE7FEE7FEE7D5
:10C34000FEE7FEE7704700BF00B583B0044B0093E3
:10C35000044A402300F03AF803B05DF804FB00BF44
:10C3600069C301005C27002022B32DE9F843134B79
:10C37000134E88461446032743F001090025224640
:10C3800008EB0501002005F03FF9034601224FF4B8
:10C390007A40E41A1D4443B933784BB1C847013F92
:10C3A0004FF0010307D03370E9E73270002CE6D17B
:10C3B000BDE8F88370473770BDE8F883D0460200C7
:10C3C0009C270020704700BF05F0F2B9F0B595B08A
:10C3D000084600240E4617461D4602F083FB1A9AB3
:10C3E0000D922346082205A93046CDE90954089745
:10C3F0008DF82C400C9402F0D9FBDDE906219DF864
:10C4000014308DF81140CDE9021203F00302012A25
:10C4100028D0022A04D0304602F068FB15B0F0BDE7
:10C42000BDF81650C3F3C203C5F389158DF810305B
:10C430000827082D2C4628BF08243B4622460EA973
:10C44000304602F0B3FB2D1B08AB02AA21460EA812
:10C45000274400F03DFD002DEBD1304602F046FBB5
:10C4600015B0F0BDBDF814100598C1F38312C3F3E5
:10C47000C203C0F39525C1F383148DF810300EA9C3
:10C4800030469200082302F091FB08AB009322464D
:10C4900002AB0EA9284600F0A5FC304602F026FBB0
:10C4A00015B0F0BD08B5FFF78FFF0448042100F078
:10C4B00017FC034B01225A7108BD00BF90550200C2
:10C4C00008260020064B074810B500221A7002F01B
:10C4D000BBFA044610B9044802F0B2FB204610BD76
:10C4E000A0270020FC5402000C47020030B499B190
:10C4F0000D490E4D491BC90813D00D4C002302E015
:10C50000013399420AD034F823208242F8D11846E8
:10C5100055F8300030BC7047044DF9E7002030BCBE
:10C5200070470846F6E700BF90550200105502001C
:10C5300040270020094B013903EBC00303290BD826
:10C54000DFE801F00402080604207047022070476B
:10C5500058797047187970470020704710550200CD
:10C56000704700BF2DE9F0438B4CD4E901239A4278
:10C5700085B05DD00023C4F81834BFF34F8FA56891
:10C58000EAB2D31C04EB830014F82330590718D502
:10C590006668037803F00303012B42D0022B03D11A
:10C5A0004388023505EB9315EAB2D4F81814D31C6E
:10C5B00004EB830029B9AE4239D914F823305B0764
:10C5C000E7D404EB82026B1CDBB2D26804EB83037A
:10C5D00002F00301DB680229CDE9012305F102061F
:10C5E0002AD0012900F08A80D4F810543DB12B687C
:10C5F00028469B689847EB681D68002DF7D167486F
:10C60000674B6849C01AC008000440F0020000F0FF
:10C6100091FAD4E90130C01A18BF012005B0BDE875
:10C62000F08303880235C3F383131D44BCE7A6607F
:10C63000002005B0BDE8F083BDF806305A48C3F3CA
:10C6400089184546502D28BF502565F38F1305F1F5
:10C650000801ADF8063002F0F9F907460028C3D00A
:10C6600002F040FA0023082201A9384602F06AFAD3
:10C67000F343DBB20133B5EB830F4FEA83097FD974
:10C68000F1B2A5EB0905033104EB81014A463846B6
:10C690000823EDB202F056FA444909F108032A468C
:10C6A000384602F04FFA08F1030806EB9806D4F872
:10C6B0001834D4F81054002B5ED165B1EB685A7968
:10C6C00028463946002A65D02B681B689847EB68D6
:10C6D0001D68002DF2D1384602F008FA00230DF152
:10C6E00003008DF8033001F0C3FAD4F8183403B90D
:10C6F000A6609DF8030001F0E1FA8AE7BDF8042086
:10C700002948C2F38313062B28BF062363F389123B
:10C71000023303F00F018900ADF8042002F096F90E
:10C72000074600283FF460AF02F0DCF9002308223E
:10C7300001A9384602F006FABDF8043013F4707F00
:10C74000B5D06FF001094FF00808A9EB0509F1B267
:10C7500003314346042204EB8101384602F0F2F92A
:10C76000BDF804300136C3F3831309EB060293428C
:10C7700008F10408EBD89AE7384602F0B7F948E721
:10C78000F1B203312A4604EB81010823384602F056
:10C79000D9F988E71D6890E7A027002038550200E6
:10C7A00010550200F4460200FC540200AC270020A1
:10C7B0002DE9F04FDFF8BCB189B0002406460DF139
:10C7C00013000193894692468DF8134001F050FA08
:10C7D000DBF80830DBF8047003F58073DB1B032BF8
:10C7E00000F2C480CDE902760BF21C450BF583689C
:10C7F0000BF2144419E0BDF81620C2F3891203327B
:10C80000360C07EB9207204601F0E0FC3146002889
:10C8100039D02846CBF8087001F0B4FCDBE90123DD
:10C8200003F580739B1A032B5CD80121284601F085
:10C83000A9FC404601F0BEFC204601F0BBFCDBF841
:10C840000870FAB2D11C0BEB810C1BF821104B07BE
:10C8500001F0040027D40BEB82017A1CC968059112
:10C86000D2B20BEB820201F003000128D66807F177
:10C87000020730D00228BED0204601F0A7FC0026D7
:10C8800031460028C5D12846C6E7BCF8027001EB46
:10C890009717FAB2D31C0BEB830C1BF8230000F0A4
:10C8A00004000028D7D09CF8003003F00303012BCC
:10C8B0000AD0022B07F1020102F10303E5D00BEBD2
:10C8C000830C0028EFD1C6E7BCF800300237C3F371
:10C8D00083131F44DDE7BDF81420C2F38312360C26
:10C8E000174490E7DDE90276D3B2033385214BF894
:10C8F000231004329DF81300CBF8042001F0DEF978
:10C90000BB1CDBB20BEB8303019AC3F80CA0FB1C2E
:10C91000DBB20BEB830300211548DA6001F010FC59
:10C9200080F31001F300781C03F03803C0B2FAB2B0
:10C93000090443F081030BEB8000033243EA8923AF
:10C9400041EA1641C1604BF822309BF8003023B910
:10C95000FFF706FE09B0BDE8F08FFFF703FE0028E1
:10C96000F6D0FFF7FFFD0028F7D1F1E73A46BBE725
:10C97000BC2B0020A02700202DE9F04FDFF8B0B13C
:10C9800087B0002306460DF10B008DF80B30CDE982
:10C99000001201F06DF9DBE9018303F58073A3EB6D
:10C9A0000803022B00F281800BF21C450BF5836714
:10C9B0000BF214441AE0BDF80E20C2F389120332C0
:10C9C0004FEA114A09EB9209204601F0FFFB51465C
:10C9D00000283AD02846CBF8089001F0D3FBDBE9D9
:10C9E000012303F580739B1A022B5FD8012128468F
:10C9F00001F0C8FB384601F0DDFB204601F0DAFB10
:10CA0000DBF80830DAB2D11C0BEB810C1BF82110DB
:10CA100001F00400490728D40BEB82015A1CC968B5
:10CA20000391D2B201F003000BEB82020128D1681E
:10CA300003F1020931D00228BDD0204601F0C6FB27
:10CA40004FF0000A51460028C4D12846C5E7BCF87B
:10CA500002300EEB9313DAB2D11C0BEB810C1BF8F6
:10CA6000211001F004000028D6D09CF8001001F03D
:10CA7000030101290AD0022903F1020E02F1030188
:10CA8000E5D00BEB810C0028EFD1C5E7BCF8002006
:10CA90000233C2F383121344DDE7BDF80C20C2F366
:10CAA00083124FEA114A91448EE74246D3B20333D0
:10CAB00045214BF8231003329DF80B00CBF80420DE
:10CAC00001F0FCF808F10203DBB20BEB8303019ADF
:10CAD0001648DA60002101F033FB80F31001F30007
:10CAE000009A03F0380343F0410308F1010043EAE0
:10CAF0008223C0B25FFA88F209040BEB8000033294
:10CB000041EA1641C1604BF822309BF8003023B94E
:10CB1000FFF726FD07B0BDE8F08FFFF723FD0028E3
:10CB2000F6D0FFF71FFD0028F7D1F1E7BC2B00205E
:10CB3000A02700202DE9F04FDFF8A0A187B0002347
:10CB400006460DF10B008DF80B30019101F090F8C5
:10CB5000DAE9018303F58073A3EB0803012B00F2EC
:10CB600081800AF21C450AF583670AF214441AE030
:10CB7000BDF80E30C3F3891303334FEA11490BEBB1
:10CB8000930B204601F022FB494600283AD0284664
:10CB9000CAF808B001F0F6FADAE9012303F5807368
:10CBA0009B1A012B5FD80121284601F0EBFA384689
:10CBB00001F000FB204601F0FDFADAF80830DAB2A5
:10CBC000D11C0AEB810C1AF8211001F0040049076E
:10CBD00028D40AEB82015A1CC9680391D2B201F031
:10CBE00003000AEB82020128D16803F1020B31D065
:10CBF0000228BDD0204601F0E9FA4FF0000949466D
:10CC00000028C4D12846C5E7BCF802300EEB9313C8
:10CC1000DAB2D11C0AEB810C1AF8211001F00400E1
:10CC20000028D6D09CF8001001F0030101290AD099
:10CC3000022903F1020E02F10301E5D00AEB810C97
:10CC40000028EFD1C5E7BCF800200233C2F38312FD
:10CC50001344DDE7BDF80C30C3F383134FEA1149E9
:10CC60009B448EE74246D3B2033305214AF8231092
:10CC700002329DF80B00CAF8042001F01FF80021D1
:10CC8000154801F05DFA80F31001F300019A03F0FA
:10CC9000380343F0010308F1010043EA8223C0B2E4
:10CCA0005FFA88F209040AEB8000033241EA164178
:10CCB000C1604AF822309AF8003023B9FFF750FCDF
:10CCC00007B0BDE8F08FFFF74DFC0028F6D0FFF766
:10CCD00049FC0028F7D1F1E7BC2B0020A027002059
:10CCE00030B4154DD5F81014044679B100200B4628
:10CCF00001E01B685BB1DB681A798242F9D101302F
:10CD00000A28F4D14FF0FF3030BC70470846E36882
:10CD10001871D5F810344BB1DA68E36812681A60FC
:10CD2000D5F81034DB681C6030BC7047C5F810447F
:10CD3000E268136030BC7047A027002038B5084B6C
:10CD4000D3F8104401251D704CB1E3685D71236870
:10CD500020465B689847E3681C68002CF5D138BD15
:10CD6000A027002070B5C38882B004460D461BBBC7
:10CD7000237A052B1ED0627A7AB9134AA08852F81A
:10CD800023600021FFF7B2FB1049034632462846D4
:10CD900002B0BDE8704001F093BA1946A088FFF7D1
:10CDA000C9FB0B4B0B4953F82020284601F088FAA9
:10CDB000237AE2E702B070BD07490091074A0849AB
:10CDC000284601F07DFAD3E7E44702004447020019
:10CDD000C0470200404702003847020018470200DF
:10CDE000204702002DE9F04385B01D460C9C00232E
:10CDF00094F80C90237380460E4617462146284629
:10CE0000FFF7B0FF062F09D8DFE807F0042E343B08
:10CE1000444F1F004146204601F052FA2B7A052B61
:10CE200005D06B7A5BB92749204601F049FA2046C4
:10CE300001F03AFA84F80C9005B0BDE8F083224A7C
:10CE40002249204601F03CFAEDE773690393336908
:10CE50000293F3680193B3680093D6E90023414637
:10CE6000204601F02DFAD9E732684146204601F00C
:10CE700027FAD3E7D6E900234146204601F020FAFD
:10CE8000CCE7B3680093D6E900234146204601F081
:10CE900017FAC3E7F3680193B3680093D6E9002358
:10CEA0004146204601F00CFAB8E733690293F36873
:10CEB0000193B3680093D6E900234146204601F070
:10CEC000FFF9ABE750470200384702004047020035
:10CED000082900D970472DE9F04F1D4683B0002482
:10CEE0001B7B2C730E46074629461046904601933D
:10CEF000DFF8D0B0DFF8D0A0FFF734FF05E03A5DEF
:10CF0000013401F0DDF9082C09D0A642514628462B
:10CF1000F5D85946013401F0D3F9082CF5D124494C
:10CF2000DFF8A8B0234CDFF8A8A0284601F0C8F924
:10CF30004FF0000917E017F80910481C7E294FF040
:10CF40002E02C0B206D81AF8002012F0970F14BFB4
:10CF50000A462E222146284609F1010901F0B0F9BE
:10CF6000B9F1080F0AD04E45E5D85946284609F1CF
:10CF7000010901F0A5F9B9F1080FF4D198F80830CA
:10CF8000052B02D098F809305BB90B49284601F00F
:10CF900097F9284601F088F9019B2B7303B0BDE88F
:10CFA000F08F064A0649284601F08AF9EDE700BFEE
:10CFB0006047020064470200504702003847020001
:10CFC000404702005C470200544702004C47020001
:10CFD0006453020038B5174B1D783DB3164A1168EB
:10CFE000C0B200230C4604E00133AB4204F1080454
:10CFF0001CD011F833209042F6D102F0F1FB637897
:10D00000A3F10103B3FA83F35B09834200D038BD77
:10D010000A4AD2E900321343F9D1094B0948196889
:10D020000022BDE83840490800F01EBC00231B78F0
:10D03000FFDE00BF542D0020582D0020482D002079
:10D04000502D0020102600202DE9F047DFF86092D7
:10D05000DFF860A299F8003082B0002B4FD0DFF8E3
:10D060005882904F0024D8F8005015F8340002F090
:10D07000B7FB15F8346005EBC40572086B78B95C32
:10D08000A3F10103B3FA83F3F5074FEA531340F119
:10D09000A2800D09042D00F29B80DFE805F0033823
:10D0A00047544E00834240F093800F2010230140EC
:10D0B0000B43BB540DF1070000238DF8073000F03F
:10D0C000D7FD0122A6F12003C6F1200122FA01F1C9
:10D0D00002FA03F30B43DAF800109DF80700B240A0
:10D0E0001143DAF80420CAF800101A43CAF80420E1
:10D0F00000F0E4FD99F8002001349442B3DBDAE952
:10D100000032134340F0C38002B0BDE8F087181A24
:10D11000B0FA80F0400943010F2008400343BB549C
:10D1200099F80020013494429DDBE8E783424FF0F8
:10D130000F0040F0AA8030236AE0834240F0A380D1
:10D140000F20302396E0834242D00F20402391E00D
:10D15000834200F09580F02399F800500B40BB54B7
:10D16000A5B1D8F800000023024603E0AB4202F16B
:10D1700008020BD010F83310B14203F10103F5D1CE
:10D1800022B1536813B100213046984700230DF1B6
:10D1900007008DF8073000F06BFD0122A6F1200397
:10D1A000C6F1200122FA01F102FA03F30B43DAF887
:10D1B00000109DF80700B24021EA0201DAF80420CD
:10D1C000CAF8001022EA0302CAF8042000F076FD33
:10D1D00099F80020A6E701F00F05042DF8D80FF20A
:10D1E000080C5CF825F000BF69D201005BD2010099
:10D1F00007D20100FDD1010051D101008342E7D0E7
:10D20000F020042336E083424FF0F00031D10323B5
:10D2100001400B43BB5499F80020002A3FF46FAF44
:10D22000D8F800500023294604E0934201F1080198
:10D230003FF478AF15F83300B04203F10103F4D1A5
:10D2400000293FF46FAF4B68002B3FF46BAF3046C3
:10D250000121984799F8002064E7181AB0FA80F085
:10D2600040094300F02058E78342B1D1F020012368
:10D270001DE7012301400B43BB5499F8002051E7FF
:10D28000F0200323F6E70F2366E71023F2E7064BAF
:10D29000064819680022490802B0BDE8F04700F0CE
:10D2A000E3BA00BF282D0020502D002010260020BA
:10D2B000542D0020482D0020582D0020092A3FD948
:10D2C000F0B583B0144605460E4602F007F988B360
:10D2D000204B214A1E70214B1560002120481C6004
:10D2E000202206F0BCF91F4B00200021741EC3E968
:10D2F0000001E4B236B31C4F05EBC404032602E080
:10D30000A5421FD01C469DF8063094F802C0207834
:10D310008DF8046023F007033A4601A98DF8063022
:10D320008DF805C002F0E4F8A4F108030028E7D066
:10D3300003B0F0BD02F078F80028C9D003B0F0BD0A
:10D3400007207047094A0A48002103B0BDE8F040B1
:10D3500000F072BA542D0020582D0020502D0020CE
:10D36000282D0020482D0020D5CF010049D00100F4
:10D37000F847020070B5084D2B785BB1074E0024CA
:10D380003368012113F8340002F0B2F92B7801342C
:10D39000A342F5D8002070BD542D0020582D002048
:10D3A00000B585B00346002101AA44F20100CDE991
:10D3B0000111039300F004F805B05DF804FB00BF11
:10D3C00010B572B6FFF7BAFCFFF7CCF80028FBD116
:10D3D000104B114C1149E41AE408240444F00100F4
:10D3E000FFF7A8FB0E4BD3F8F030DB0700D500BEEB
:10D3F0000C4944F00200FFF79DFBBFF34F8F084933
:10D40000094BCA6802F4E0621343CB60BFF34F8F4D
:10D4100000BFFDE710550200385502000848020021
:10D4200000ED00E0144802000400FA0559B142B1D1
:10D43000531E1A4005D1826001608380C26010468D
:10D440007047092070470E20704700BF10B48468F1
:10D45000C26803468088121B904203D204205DF804
:10D46000044B7047DC681A6820401154DA680132B6
:10D47000DA6000205DF8044B704700BF0346806807
:10D48000DA6890420DD010B49C689A8818682240DF
:10D49000825C0A709A6801329A6000205DF8044B41
:10D4A00070470520704700BF30B48D688468C2683B
:10D4B000CB68A54293412CBF0120002030BC7047AF
:10D4C00030B5344B1D7883B01DB90025284603B014
:10D4D00030BD04460028F8D02F4800F053FD2F4BF4
:10D4E0001A685B6880182E4AD2E9001243F10003E3
:10D4F000884273EB020203D210F1807043F1000303
:10D50000D4E90212884293410AD2B2F1FF3F08BF28
:10D51000B1F1FF3FD9D02348214601F0B5FBD5E753
:10D5200000230DF107008DF8073000F0A1FB2369FF
:10D530002BB94FF0FF324FF0FF33C4E902239DF8BF
:10D54000070000F0BBFBD4E90530984700230DF13C
:10D5500007008DF8073000F08BFB2369ABB1D4E9ED
:10D560000212B2F1FF3F08BFB1F1FF3F0DD05B18CF
:10D5700042F100029DF80700C4E9023200F09EFB70
:10D580000848214601F080FBA0E79DF8070000F065
:10D5900095FB9AE7D82D002030260020D02D0020C2
:10D5A000C82D0020244802002DE9F04F83B08146A9
:10D5B00000F0BCFC40B17C4AD2E9003113F1807329
:10D5C00041F10001C2E900310021484600F0CAFCE7
:10D5D000764D30B12B6823B12868FFF771FF002327
:10D5E0002B600121484600F0BDFC002840F0C480BB
:10D5F0006F4801A900F040FD00283AD06C4C4FF074
:10D60000FF3A4FF0FF3B09E033B301A9204600F099
:10D6100065FD01A9204600F02FFD50B30378012BD2
:10D6200011D0022BF0D1634E304601F041FB30B1F6
:10D63000C0E902AB304601F03BFB0028F8D15E4B5D
:10D6400001221A70E1E72B684168994200F091804D
:10D65000584801F037FBD8E74168D1E90223B3F11C
:10D66000FF3F08BFB2F1FF3FCFD0524801F00CFBA3
:10D67000CBE7504E514FDFF83081304601F01EFBB2
:10D68000002853D0D0E90223B3F1FF3F08BFB2F125
:10D69000FF3F6AD0296891B12968D1E9020182422D
:10D6A0008B4159D22B68D3E90223B3F1FF3F08BF66
:10D6B000B2F1FF3F03D02968304601F0E5FA304669
:10D6C00001F0F6FA04463846D4E902AB00F05AFC01
:10D6D0003B4BD8F80410D3E900E2D8F80030C31867
:10D6E00041F10001734571EB020C03D213F1807319
:10D6F00041F10001BAEB03036BEB010B012B7BF152
:10D70000000B1BDBB3F5350F29D252464FF49603BD
:10D710000021384600F080FBC0B10D2812D0002354
:10D7200030462B6001F0CAFA0028ABD12B689BB9B8
:10D73000484603B0BDE8F04F00F040BB002138463A
:10D7400000F004FC2046FFF7BBFEE8E72B6813B9A6
:10D75000484600F02FFB2C6003B0BDE8F08F384640
:10D7600000F010FC174A0244D0E7304601F0A0FA5E
:10D7700083E700232B6048E7104800F003FC0A4BC6
:10D780001A685B6880180E4AD2E9004143F1000331
:10D79000A04273EB010103D210F1807043F100034A
:10D7A000C2E9000324E700BFD02D0020DC2D0020BB
:10D7B000602D002024480200D82D002030260020B3
:10D7C000C82D0020FFFFB40010B5134B13491C688F
:10D7D000134882B008235822019400F0F3FB04465A
:10D7E00010B1204602B010BD0E4A0F4801A900F04A
:10D7F0007DFA04460028F4D10B48012100F08CFB8F
:10D8000001231946094A084800F0DCFA084B0122B6
:10D8100020461A7002B010BD3C480200702D002056
:10D82000602D0020A9D5010030260020FFFF7F00D9
:10D83000D82D0020000000006AB19FED097BA1F106
:10D8400001010368B1FA81F1490983ED027BC3E963
:10D850000412002070470720704700BFAFF300801C
:10D86000FFFFFFFFFFFFFFFFF0B583B00446002678
:10D8700001A817460D468DF8046000F0F9F9D4E9C7
:10D880000223B3F1FF3F08BFB2F1FF3F06D09DF87E
:10D89000040000F013FA304603B0F0BD1C4800F05D
:10D8A00071FB1C4B1C4A19685B684018D2E90012D6
:10D8B00043F10003884273EB020220D3281843F19E
:10D8C0000003A060E3609DF8040000F0F7F923690D
:10D8D000A76103B12561114801A900F08BFB034644
:10D8E00050B100220D481A705C6001A900F0B4FB31
:10D8F00050B9002003B0F0BD042003B0F0BD10F11A
:10D90000807043F10003D9E7014800F03FFBF0E7E6
:10D9100030260020D02D0020C82D0020602D0020B2
:10D9200030B583B00446002501A88DF8045000F0FE
:10D930009FF9D4E90223B3F1FF3F08BFB2F1FF3FE3
:10D940001DD04FF0FF334FF0FF32C4E902239DF8A2
:10D95000040000F0B3F90F4801A900F04BFB0346A7
:10D9600050B101220B481A705C6001A900F074FBF1
:10D9700060B9002003B030BD042003B030BD9DF875
:10D98000040000F09BF9284603B030BD024800F0C7
:10D99000FDFAEEE7602D00203026002030B5047837
:10D9A000012C83B004D0022C2DD0ECB103B030BDDB
:10D9B000037A002B3CD04368364D19782846FFF790
:10D9C00045FD002855D0344B01901B688DF8004070
:10D9D00068469847A968EB68AA885B1A9A4227D2DA
:10D9E0002E4B01221A70E1E72D492E48FFF746FD24
:10D9F00000282DD0284B03221B688DF80020684694
:10DA0000984703B030BD284B284D1A78C168AA5CEE
:10DA100001918DF800402649AAB9012203F10C00BA
:10DA200002F0F4FB1C4B68461B68984703B030BDFE
:10DA30001D4B1E4A1B781E49D35C0122ABB11D4809
:10DA400002F0C6FEB2E70122181D02F0C1FEE9E7AE
:10DA50001548164A03781249D35C0122A3B1043059
:10DA600003B0BDE8304002F04FBE134802F0CEFBD9
:10DA70009CE7AA68EB689A42ACD0074B8DF800008F
:10DA80001B6868469847A5E70C3003B0BDE83040F6
:10DA900002F044BBF02D00200C2E0020002E0020B0
:10DAA000082E0020E02D0020382600204C2E0020DB
:10DAB000042E00203C260020442600202DE9F041C1
:10DAC0002F4E88B03260002951D08A8804460E4615
:10DAD0002C4809681D46FFF7A9FC10B108B0BDE845
:10DAE000F081B289B1682848FFF7A0FC0028F5D181
:10DAF00094F810E0637C254E254FBEF1000E18BF50
:10DB00004FF0010E002B0FCEEC46ACE80F0063681F
:10DB1000009323680193E3680293A368039396E854
:10DB20000F0008BF4FF000088CE80F0018BF4FF03F
:10DB30000E086369174A0693694638468DF814E063
:10DB40008DF81C508DF8158001F0D0FB0028C5D150
:10DB50002368114A01331070C0D0104A3B78104935
:10DB6000D35C01223BB1381D02F032FEB6E707203C
:10DB700008B0BDE8F08107F10C0002F047FBADE70B
:10DB80000C2E0020F02D0020E02D00204048020047
:10DB9000382600209DD90100002E00204C2E0020A8
:10DBA000042E002070B5104D014610482E78FFF766
:10DBB00065FC04460EB9204670BD0D480D4903783A
:10DBC000CB5C0D4900222A70012243B1043002F0DF
:10DBD000FFFD0028EFD0FFF7E3FB204670BD0C30BF
:10DBE00002F014FBF5E700BF002E0020F02D00200E
:10DBF000382600204C2E0020042E002070B501464F
:10DC00001548FFF723FC044608B1204670BD134DAC
:10DC1000134E2B78F35CA3B1281D02F0CBFD002836
:10DC2000F3D110490C48FFF729FC0028EDD12B78DF
:10DC30000C49F35C53B1BDE870400B48012202F07F
:10DC400063BD05F10C0002F0D5FAE8E7BDE87040CD
:10DC50000648012202F062BAE02D0020382600209A
:10DC60004C2E0020082E00203C26002044260020B8
:10DC700070B4EFF3108472B60D4A9368ABB901210A
:10DC800091600C490C4ED1F8805035401560C1F8B8
:10DC90008060D1F8845055604FF0FF32C1F8842085
:10DCA000037004B962B670BC70470123F8E700BF87
:10DCB000102E002000E100E0FC06FFBD094B9A6831
:10DCC0007AB170B910B4EFF3108172B6064A1C68CD
:10DCD00014605C685460986001B962B65DF8044BEA
:10DCE00070477047102E002000E100E010B5294C6D
:10DCF000437944F82320284C04EBC3031B79002B01
:10DD00003BD103680A88C3F8082590F904308A7863
:10DD1000002B2ADB03F16043520103F56143D2B2C9
:10DD200083F8002390F90430002B09DB1B494FEAEC
:10DD3000531C012203F01F0302FA03F341F82C30B5
:10DD40004279174B44F832001648181A04EBC20106
:10DD5000C0084FF0010C000481F804C040F003003B
:10DD60001149FEF7E7FE002010BD104903F00F0334
:10DD700052011944D2B20A76D4E70A4B08480C493A
:10DD8000C01AC008000440F00200FEF7D3FE0820CD
:10DD900010BD00BF242E00201C2E002000E100E05A
:10DDA000485502001055020084480200FCEC00E0D7
:10DDB00060480200036801221A607047036801226C
:10DDC0005A60704770B405684FF480348C40C5F8D1
:10DDD0000843056801F1500CC5F848434FEA8C0C24
:10DDE00005681FFA8CFC002645F80C6083B055F8D6
:10DDF0000C500195019D056801F5A87122F07F4244
:10DE000045F821200268C2F8444313B10368C3F8FF
:10DE1000044303B070BC70472DE9F0474FF48037DE
:10DE2000994603688F40C3F848730368C3F80873C2
:10DE3000036801F150060D4603EB810122F07F4893
:10DE4000D3F80435D1F84025C1F84035B600B6B254
:10DE5000D21A03684FF0000A43F806A082B09B591B
:10DE6000009322F07F42012A009B044645D023689C
:10DE7000D3F80465C3F84473A8EB060323F07F438B
:10DE8000012B05F5A87527D0226842F82580216866
:10DE9000D1F80405A8EB0002C9F1FF13013A03F51C
:10DEA0007F4322F07F42934212D342B1C1F84473C0
:10DEB00023680020C3F8047302B0BDE8F08708F1BE
:10DEC000010341F825302168D1F804359842EDD09E
:10DED0000D2002B0BDE8F087236808F1010243F885
:10DEE00025200C4B4FF4806043F0010398472168D4
:10DEF000D1F804359E42D9D0EAE7064B4FF4806052
:10DF000043F001039847236843F806A09B59019307
:10DF1000019BACE7A048020002680223C2F8443328
:10DF200011B10268C2F80433704700BF0368D3F828
:10DF3000040100B97047002282B0C3F80421D3F86D
:10DF400004310193019B012002B0704702684FF435
:10DF5000803303FA01F1C2F848130368C3F80813C9
:10DF6000704700BF50318900036889B2585800B922
:10DF7000704700225A5082B05B580193019B0120E8
:10DF800002B070470368D3F80405704790F9043075
:10DF9000002B09DB5A09054803F01F030121403219
:10DFA00001FA03F340F82230704700BF00E100E0BF
:10DFB000024A034B10681B68184700BF1C2E002044
:10DFC000242E002099B110B4B2FBF3F403FB142407
:10DFD000A4B244B90160446084608281C381204658
:10DFE0005DF8044B704709205DF8044B70470E2024
:10DFF000704700BF10B483B050E8013F1FFA83FCA4
:10E00000C489A4448489A44528BFACEB040C0489CA
:10E01000A44502BFBFF32F8F002207E0CCEA030C18
:10E0200040E801C4002CE7D14FF001028DF8032035
:10E030000193019C9DF803200C6032B1006810FA36
:10E0400084F003B05DF8044B704702F0FF031846FC
:10E0500003B05DF8044B70470A884B889A4201D0A0
:10E060000020704750E8012FC2EA024240E8012335
:10E07000002BF7D10120704710B483B050E8023F65
:10E080001FFAA3FCC488A44502BFBFF32F8F002250
:10E090000EE0C489A4448489A44528BFACEB040CD9
:10E0A000C3EA0C4C40E802C4002CE7D14FF0010257
:10E0B0008DF803200193019C9DF803200C6032B180
:10E0C000006800EB144003B05DF8044B704702F0A9
:10E0D000FF03184603B05DF8044B70470A884B886D
:10E0E0009A4201D00020704750E8022FC2EA224233
:10E0F00040E80223002BF7D1012070474B0901F0C3
:10E100001F024FF0010C0CFA02F100EB830000F04B
:10E1100021B800BF01F01F02012303FA02F24B09EC
:10E1200000EB8300D14300F021B800BF4B0901F0A0
:10E130001F0150F82300C84000F00100704700BFE5
:10E14000034653E8000F0A4643E8002C9CF0000FFA
:10E15000F7D17047034653E8002F42EA010043E835
:10E16000000C9CF0000FF6D1704700BF034653E847
:10E17000002F02EA010043E8000C9CF0000FF6D1EA
:10E18000704700BF034653E8002F02EB010043E84D
:10E19000000C9CF0000FF6D1704700BF034653E817
:10E1A000002FA2EB010043E8000C9CF0000FF6D119
:10E1B000704700BF0346012253E8001F41EA0200F6
:10E1C00043E8000C9CF0000FF6D170470346002294
:10E1D00053E8000F00EA020143E8001C9CF0000F26
:10E1E000F6D17047D0B110B4D0E90112521A0468C8
:10E1F000D2B2531E2160DBB252B101680A6803F14A
:10E20000FF3C541C0C6013705FFA8CF3FF2BF4D1AD
:10E210000368002018715DF8044B70470E207047AA
:10E2200030B583B0044600250DF107008DF8075086
:10E23000FFF71EFDD4E900311A688A4210D9511E39
:10E2400019602168A368086812F801CC0A79E568AA
:10E250001B1ADBB2208A9A4238BF0B7100FB0C55A7
:10E260009DF80700FFF72AFD284603B030BD00BF28
:10E2700030B5054683B00DF1070000230C468DF83C
:10E280000730FFF7F5FC2A681368591C1160E9682C
:10E290002A8A641AB4FBF2F41C709DF80700FFF799
:10E2A0000DFD03B030BD00BF826842B110B5044619
:10E2B00043690168006998470023A36010BD704757
:10E2C0000EB400B582B0039921B104AB01AA019349
:10E2D00000F0B2F802B05DF804EB03B0704700BF85
:10E2E0002DE9F04F164683B0B142DDF830900D9A1B
:10E2F0000F4605469A46C0F09A800B464FF001083B
:10E30000B3FBF6F39E4208F10108F9D9D04538BFB6
:10E31000D04612F00103019302D1B9F1000F65D18B
:10E32000AA68BAF1010F4FF0010406D90AF1FF3AC9
:10E33000BAF1010F06FB04F4F8D8B7FBF4F39E42E0
:10E3400005D806FB04F4B7FBF4F39E42F9D9DFF8D5
:10E35000E4A007E0B442B4FBF6F31AD3AA681C4663
:10E36000B7FBF3F31AF803B0BBF10A0F04FB137702
:10E370002DD02B68511CA96003F802B0D5E90132F9
:10E380009A42E7D32846FFF78FFFB4FBF6F3B44277
:10E39000E4D2019BC3B1B9F1000F15D0C14513D927
:10E3A000202401E0C1450FD0AB682A68591CA96040
:10E3B000D454D5E901329A4209F1FF39F2D3284603
:10E3C000FFF772FFC145EFD103B0BDE8F08F511CDC
:10E3D0002B68A9604FF00D019954D5E901329A429A
:10E3E000C7D32846FFF760FFAA68C2E7930718D48F
:10E3F0002024C14594D9AA682968531CAB608C5469
:10E40000D5E901128A4209F1FF3905D2B9F1000FAD
:10E4100087D0C145F0D184E72846FFF745FFAA68B9
:10E42000F4E7BAF1000F14BF20243024E1E74FF0E5
:10E4300001086BE7A8480200002900F070822DE96E
:10E44000F04F0C4685B014F8015B0646002D7BD0DA
:10E4500091464FF00D0A10E00A2D00F09080B3684D
:10E460003268591CB160D554D6E901329A4280F025
:10E4700082802578002D67D00134252DECD100272E
:10E48000224614F8013B2D2B6FD0302B70D02B2B54
:10E4900064D02A2B00F08280A3F1300109294FF0CB
:10E4A00000050BD805EB850503EB450512F8013F88
:10E4B000A3F130010929A5F13005F3D92E2B14461B
:10E4C00077D04FF0000803F0FB02682A43D0252BD9
:10E4D00000F08E81583BDAB2202A31D8202B2FD879
:10E4E000DFE813F021002E002E002E002E002E005B
:10E4F0002E002E002E002E002E0004017D002E0086
:10E500002E002E002E007D002E002E002E002E004C
:10E510002E002E00B5002E002E0021012E001C0121
:10E520002E002E002100D9F8001043461022081DAD
:10E53000C9F8000009683046CDE90057FFF7D0FE62
:10E5400001342578002D97D1337B002B40F04A8190
:10E5500005B0BDE8F08F14F8013FB4E7224614F887
:10E56000013B2D2B47F004078FD147F0010787E7C8
:10E5700047F0020784E73046FFF796FE79E7B36875
:10E580003268591CB16002F803A0D6E90123934216
:10E59000FFF466AF3046FFF787FE60E7D9F800303A
:10E5A000191DC9F800101D6853782E2B02F10104C3
:10E5B00087D16378A3F13002092A04F101044FF0F6
:10E5C000000880D808EB880803EB480814F8013FDE
:10E5D000A3F13002092AA8F13008F3D973E7D9F87A
:10E5E00000301A1DC9F80020D3F800B08BEAEB7395
:10E5F000A3EBEB73092B40F30D82B74801211A46B8
:10E60000632AA0FB03C301F101014FEAD303F6DC47
:10E61000414538BF4146002D40F020810025BBF127
:10E62000000FC0F2908107F00403002B40F0E1815D
:10E6300007F00303022B00F0D481CDE900574346D5
:10E6400059460A223046FFF74BFE013479E7D9F8E4
:10E6500000301A1DC9F80020D3F80080B368326872
:10E66000581C3021B060D154D6E90123934280F088
:10E670002581591C3268B1607821D154D6E9013224
:10E680009A4280F01681B8F10F0F474603D94346EE
:10E690001B090F2BFCD80125082301E0013B2D01AC
:10E6A000012BFBD1B8FBF5F10F29F8D8DFF82CB21C
:10E6B00006E00F2D4FEA15137FF642AFB2681D46F4
:10E6C000B7FBF5F31BF80380B8F10A0F05FB1377CE
:10E6D00078D03368501CB06003F80280D6E901326C
:10E6E0009A42E6D33046FFF7DFFDE2E7D9F8003083
:10E6F0001A1DC9F800201D78B3680A2D00F030817A
:10E700003268591CB160D554D6E901329A42FFF4FF
:10E7100017AF3046FFF7C8FD013412E7D9F80010F3
:10E7200043460A2203E7D9F800301A1DC9F8002031
:10E7300017F00107D3F8008065D1B8F1000F03D0BE
:10E74000404605F018F80746BD4215D94FF0200B9A
:10E7500001E0BD4210D0B2683368511CB16003F8CB
:10E7600002B0D6E90123934205F1FF35F1D33046DB
:10E77000FFF79AFDBD42EED198F80050002D3FF40E
:10E78000DFAEB3680D270A2D0FD03268591CB16077
:10E79000D554D6E90123934280F0C28018F8015F76
:10E7A000002D3FF4CDAE0A2DEFD13268591CB16077
:10E7B000D754D6E901239342E7D33046FFF774FDDF
:10E7C000B368E2E73368501C4FF00D01B060995414
:10E7D000D6E901329A42FFF47CAF3046FFF764FD80
:10E7E000B26876E7304605B0BDE8F04FFFF75CBD94
:10E7F000B2683168501CB0608B54D6E901329A423D
:10E8000087D201349DE698F80020002A00F0138199
:10E810000A2AB368C3464FF00D0710D03168581C60
:10E82000B060CA54D6E9012393420BF101016AD2C8
:10E830009BF80120002A46D08B460A2AEED1316887
:10E84000581CB060CF54D6E901138B42E6D3304652
:10E850000392FFF729FDB368039ADFE7BBF1000FCE
:10E8600068DB17F0040300F08A80BA0705F1FF3572
:10E8700003D5B8F1000F3FF4D8AEFA073FF5D5AE97
:10E88000002D3FF4D2AEA942BFF4CFAE2023B26830
:10E89000501CB06030688354D6E90102824205F111
:10E8A000FF3580F09380002D3FF4B8AEA942EED141
:10E8B000B5E63046FFF7F8FCB268E4E63046FFF70D
:10E8C000F3FCB368D5E6C8F1010293445D457FF6D9
:10E8D00037AE4FF0200806E0CDCCCCCCA8480200E3
:10E8E000AB453FF42DAEB36831685A1CB26001F8F5
:10E8F0000380D6E90131994205F1FF35F0D3304666
:10E90000FFF7D2FCECE73046FFF7CEFC9BF8012086
:10E910000BF10101002AD6D0B3688B468DE7704712
:10E920003046FFF7C1FC18F8015F002D3FF408AE38
:10E93000B36828E7B80705F1FF354ED4FB0702D4CA
:10E940000DB1A942A2D3B2683368501CB0602D202B
:10E950009854D6E901329A425ED2CBF1000B67E6B9
:10E96000591C3268B1600D21D154D6E9012393427C
:10E97000FFF4C6AE3046FFF797FCB368C0E6BA07AF
:10E9800050D4FB075CD507F00303022B7FF455AE90
:10E99000B8F1000F7FF451AEA942BFF44EAE302360
:10E9A000B268501CB06030688354D6E901028242DC
:10E9B00005F1FF3503D2D5B1A942F1D13DE630468C
:10E9C0000391FFF771FC03993023F4E7304603917C
:10E9D000FFF76AFC0399202365E7B8F1000FADD17A
:10E9E000B1E7B8F1000F7FF428AE002DD4D1002597
:10E9F00023E6B2683368501CB0602B209854D6E9E7
:10EA000001329A42FFF414AE30460391FFF74CFCFA
:10EA100003990DE60121FBE530460391FFF744FC25
:10EA200003999AE7B8F1000F07D107F00303022B0F
:10EA30007FF403AEB0E7934648E7F8073FF5F8AD3B
:10EA40008D423FF623AFF3E5FFF7CCBB2DE9F04154
:10EA5000078ACE1C043F3E440546B6FBF7F6FFF797
:10EA6000DFFB002834D0F6B24FF48073013E044639
:10EA70008380C78005602CD003464FF0000807E074
:10EA80006279464502F1010262713860056020D06A
:10EA900028461F46FFF7C4FB08F10108034600287B
:10EAA000EED16779791E17D0224601339942126858
:10EAB000FBD1D2F800805FB12668002501E0344622
:10EAC0003668214640460135FFF7D2FBAF42F6D803
:10EAD00000242046BDE8F08120682146FFF7C8FBEE
:10EAE000F6E700BF01210430FFF74CBB2DE9F041F0
:10EAF000012104460430FFF751FB10F0FF0301D061
:10EB0000BDE8F0816779791E16D02246013399421B
:10EB10001268FBD1D2F80080002FF1D026680025C2
:10EB200001E034463668214640460135FFF7A0FB38
:10EB3000AF42F6D8BDE8F08120682146BDE8F0413B
:10EB4000FFF796BB2DE9F8438846C788417907FB54
:10EB500001F1043902EB030C1E1D6145154638BF57
:10EB6000CD1AB7420446B6FBF7F207FB126002D893
:10EB7000013A2468FCD13E1AAE4228BF2E469DB110
:10EB80004FF000090430AD1B324608EB0901204468
:10EB900004F0E3FDAF42B14424683E464FF000006C
:10EBA00028BF2E46002DEDD1BDE8F8832DE9F843AE
:10EBB0000446C788407907FB00F0043802EB030CD9
:10EBC0001E1D6045154638BFC51AB7428846B6FBBC
:10EBD000F7F207FB126102D8013A2468FCD17E1AD1
:10EBE000AE4228BF2E469DB14FF0000904312144AA
:10EBF000AD1B324608EB090004F0AFFDAF42B14453
:10EC000024683E464FF0000128BF2E46002DEDD16E
:10EC1000BDE8F883064A074B10B5002414701C6049
:10EC2000BFF35F8F0449054800F018F8204610BD77
:10EC3000302E0020342E0020B8480200282E00205C
:10EC400082680023936082681361826853618268DE
:10EC5000D3608268536082681360704701600B68FC
:10EC600043604A68934208BF00234360704700BF77
:10EC7000436843B1026891680B4443605268934211
:10EC800004BF00234360704770B54468064620689F
:10EC90000D4618B908E02468206828B1B3682946F1
:10ECA00098470028F7D120682860256070BD00BF14
:10ECB0004368186808B102681A60704743681868AA
:10ECC000704700BF4368186818B908E00346006839
:10ECD00028B18142FAD10A681A6001207047704752
:10ECE0000E49A1F5947205E052F83330984238BFCE
:10ECF000614607D28B1A1B11914202EBC30CF3D869
:10ED00000748704702D90CF10802F3E7DCF8040069
:10ED1000034B002808BF1846704700BFF04D0200A3
:10ED2000F04D020070B5161E07DD0C468D1914F863
:10ED3000010BFEF763FFA542F9D1304670BD00BF5D
:10ED400010B50C462046FEF72DFF0528FAD001200D
:10ED500010BD00BF4FF08053D3F830210D2A2BD0C7
:10ED60005C4AD2F8883043F47003C2F88830BFF3AD
:10ED70004F8FBFF36F8F4FF08053D3F830210D2AA0
:10ED80000DD04FF01023D3F80022002A70DBD3F807
:10ED90000432002B6CDB504B504A1A607047D3F89A
:10EDA0003431022B5FD94FF010224FF08043D2F85C
:10EDB0000822C3F85825E4E74FF080410020C1F84D
:10EDC0000C01474AC1F81001C1F83805D3F8040412
:10EDD000C2F82005D3F80804C2F82405D3F80C04BF
:10EDE000C2F82805D3F81004C2F82C05D3F814048F
:10EDF000C2F83005D3F81804C2F83405D3F81C045F
:10EE0000C2F84005D3F82004C2F84405D3F824041E
:10EE1000C2F84805D3F82804C2F84C05D3F82C04EE
:10EE2000C2F85005D3F83004C2F85405D3F83404BE
:10EE3000C2F86005D3F83804C2F86405D3F83C047E
:10EE4000C2F86805D3F84004C2F86C05D3F844341E
:10EE5000C2F87035D1F80034DB0744BF6FF001030E
:10EE6000C1F800347CE71F4AD35C002B89D09AE7B5
:10EE70001D4A0123C2F80435D2F80034002BFBD020
:10EE80004FF010231221184AC3F80012D2F80034B0
:10EE9000002BFBD04FF010231221134AC3F80412A9
:10EEA000D2F80034002BFBD000230F49C2F8043500
:10EEB000D1F80034002BFBD0BFF34F8F05490B4B2B
:10EEC000CA6802F4E0621343CB60BFF34F8F00BF08
:10EED000FDE700BF00ED00E04C2600200090D003CD
:10EEE00000C00040044E020000E001400400FA05AA
:10EEF000074B1B5C1F2B8ABF064A4FF0A04203F052
:10EF00001F03D2F80405D84000F00100704700BF8D
:10EF10000C4E020000030050064B1A5C1F2A86BFED
:10EF2000054902F01F024FF0A04101239340C1F8B0
:10EF3000083570470C4E020000030050064B1A5C67
:10EF40001F2A86BF054902F01F024FF0A04101238E
:10EF50009340C1F80C3570470C4E0200000300507E
:10EF60004FF0A0434FF400104FF4800210B4C3F8E8
:10EF70000C054FF40044C3F80C254FF08072C3F821
:10EF80000C454FF40020C3F80C254FF08052C3F815
:10EF90000C054FF40064C3F80C250849C3F80C4570
:10EFA0004FF00042C3F80C2520204FF08042C1F8FA
:10EFB0000C05C3F80C255DF8044B704700030050A6
:10EFC0004FF0A0434FF400104FF4800210B4C3F888
:10EFD00008054FF40044C3F808254FF08072C3F8C9
:10EFE00008454FF40020C3F808254FF08052C3F8BD
:10EFF00008054FF40064C3F808250849C3F808451C
:10F000004FF00042C3F8082520204FF08042C1F89D
:10F010000805C3F808255DF8044B7047000300504D
:10F020000A4B185C1F288ABF09494FF0A04100F025
:10F030001F00D1F804350122824022EA0300134068
:10F04000C1F80805C1F80C35704700BF0C4E02002E
:10F0500000030050074B1B5C1F2B8ABF064A4FF072
:10F06000A04203F01F03D2F81005D840C04300F0BF
:10F0700001007047084E0200000300500E2805D022
:10F08000172814BF4FF0FF30012070470020704751
:10F09000014B185C704700BF084E0200C10709D43D
:10F0A000830741BF4FF0A0430C22C3F83827C3F8B1
:10F0B0005C2770474FF0A043244910B403224FF45B
:10F0C0000014C3F85427C3F85827C3F83C27C3F8E3
:10F0D0006027C3F84C27C3F87027C3F82C27C3F860
:10F0E0007C27C1F81427C3F87827C3F80C454FF4E0
:10F0F00000424FF48004C3F80C45C3F80C254FF0D0
:10F1000080744FF40022C3F80C45C3F80C254FF06F
:10F1100080544FF40062C3F80C45C3F80C254FF03F
:10F1200000442022C3F80C45C1F80C254FF0804262
:10F13000C3F80C25820706D54FF0A0430C22C3F874
:10F140003827C3F85C275DF8044B70470003005074
:10F1500010B568B90E4CA368012262703BB1D3E9C7
:10F1600000230020A2609847A368002BF7D110BDB0
:10F170000128FCD1064C2369A070002BF7D0D3E9FD
:10F1800000230120226198472369002BF7D110BD8D
:10F19000382E002070B910B5074CA36801226270A8
:10F1A0003BB1D3E900230020A2609847A368002B5D
:10F1B000F7D110BD704700BF382E002030B50128B0
:10F1C00083B004D0032821D0B0B103B030BD294CA6
:10F1D00000230DF107008DF80730FEF749FD237875
:10F1E0006BB3E3689DF8070001221344E360A2704B
:10F1F000FEF764FD03B030BD1F4B0122C3F8802031
:10F20000BFF34F8FBFF36F8F03B030BD194C00F0C9
:10F21000B5F800230DF107008DF80730FEF728FD43
:10F22000E368013BE360E3681BB9144BD3F8005477
:10F23000C5B19DF80700FEF741FD03B030BD104891
:10F240006360A3602361E36000F08CF803F036FF95
:10F2500060B10A4A01232370D2F80024002AC0D0EA
:10F26000A370BEE700F09CF8A570E2E700F086F816
:10F27000EFE700BF382E002000E100E00000014071
:10F2800051F1010030B50A4B0A4C53F8213054F8C3
:10F290002110027885B0D0E901548DF80020C268B1
:10F2A00001958DF8084003926846984705B030BD37
:10F2B000582E0020502E002030B50A4B0A4C53F82F
:10F2C000213054F82110027885B0D0E901548DF82E
:10F2D0000020C26801958DF808400392684698475F
:10F2E00005B030BD582E0020502E0020F0B5184B30
:10F2F000067843F82620174B0446487F9855154654
:10F30000154A8E46096942F8261022789F5CBEE8AD
:10F310000F0089B0EC46ACE80F009EE80F008CE8C7
:10F320000F0004964FB1002D0C4A694608BF2A46CB
:10F33000201D01F0D9F809B0F0BD002D084A69463A
:10F3400008BF2A4604F10C0000F0F2FD09B0F0BD40
:10F35000582E00204C2E0020502E002085F2010057
:10F36000B9F20100044A137923B901211060117127
:10F370001846704785207047602E0020074B1A689A
:10F38000D20704D4C02283F8002301221A604FF070
:10F3900080430122C3F81825704700BF00E100E058
:10F3A0004FF0804202210023C2F8081382B0C2F855
:10F3B0000431D2F80431019301230199D360D2F8CA
:10F3C0001834DB03FBD402B0704700BF10B54FF018
:10F3D000804382B0D3F8002162B10020C3F800015D
:10F3E000D3F80021009201210E4A009CC3F80813B3
:10F3F000136898474FF08043D3F8042182B100226C
:10F40000C3F80421D3F8042101920221054A01988E
:10F41000C3F808131368012002B0BDE81040184774
:10F4200002B010BD602E002030B5274C94F8643037
:10F4300083B0002B45D15A09012A38D103F01F01AE
:10F4400040F2FF32CA4012F0010F204A1CBFFF21D8
:10F45000D15401332A2BEED14FF0FF330622002185
:10F460001B48C4F85A30C4E90033C4E90233C4E984
:10F470000433C4E90633C4E90833C4E90A3304F0A9
:10F48000EEF8144BC02283F8062340221A60124B78
:10F490000020C3F87C01D3F87C21019201214FF0B8
:10F4A0000042019D84F86410C3F804230AE04FF081
:10F4B000FF3222FA03F10548C90748BFC25401339D
:10F4C000B9E7082003B030BD682E0020982E002038
:10F4D000C62E002000E100E000600040034B93F8DE
:10F4E0006400003818BF0120704700BF682E00205C
:10F4F00070B57C4B03EB000E9EF930C0BCF1000FE1
:10F5000056DA91F802C01CF0020FCCF3400541D14D
:10F510001C6A013400F0B8805C6A013400F0CF80CE
:10F520004FF0080E0C244FF00A0C53F82C600136F3
:10F5300042D00EF1030CA4452AD253F82C600136B8
:10F540003AD00EF1040EA64522D21E69013631D002
:10F550005E69013600F0A5809E69013600F0A48046
:10F56000DE69013600F0A380082C11D01C6A01343A
:10F5700000F0B1805C6A013400F090809C6A013434
:10F5800000F0AC80DC6A013408BF4FF00B0C13D0E4
:10F59000042070BD1C68013400F08C805C6801346C
:10F5A00000F094804FF0000E08244FF0020CBCE7EE
:10F5B000082070BD4FF0040C1C1843F82C204FFAA3
:10F5C0008CF284F83020002D64D091F802C01CF039
:10F5D000040F1ED11CF0010F45D11F284D7887BFA5
:10F5E000414E00F01F0404464FF0A04604F5E074BD
:10F5F000AD0046F824503D4EC50800F0070E16F841
:10F6000005C0012404FA0EF444EA0C04745591F880
:10F6100002C01CF0020F1BD0930003F1804303F5DE
:10F62000C0430978D3F8104524F44F3424F44074CF
:10F630000202C3F810450904D3F8100502F47C5205
:10F6400001F440310A430243C3F81025002070BD85
:10F65000083A43FA82F2097892F85A3043EA811361
:10F6600082F85A30F2E71F2887BF1F4C00F01F05B1
:10F6700005464FF0A04404EB8504D4F8005725F06C
:10F680000205C4F80057B6E74FF0080C1A628EF86E
:10F6900030C062469C448CF8520096E74FF0090C4B
:10F6A0008AE74FF0050C87E74FF0060C84E74FF030
:10F6B000070C81E71A6000228EF8302085E74FF0B2
:10F6C000090C5A628EF830C06246E3E75A600122A4
:10F6D0008EF8302079E74FF0080C6DE74FF00A0CF8
:10F6E0006AE700BF682E002000030050C62E0020ED
:10F6F00030B4384C04EB000C82B09CF93030072B4E
:10F7000012DD083B44FA83F393F85A309B09032B2C
:10F7100035D0012B0CBF4FF400324FF440321F287C
:10F7200049D84FF0A04336E0DAB2072A24D898002F
:10F7300000F1804003F1400200F5C04052B2920057
:10F74000D0F8105592B202F1804202F5C04245F065
:10F750000105C0F810550020106012680192019A4E
:10F7600051B19CF9302054F822202AB11A490122C3
:10F7700002FA03F3C1F8043302B030BC70471F280B
:10F780001DD84FF0A0421346D2F81025C24002F017
:10F7900001020232120403EB8003D3F8001721F4B4
:10F7A0004031C3F80017D3F800170A43C3F8002705
:10F7B00002B030BC704700F01F00084BEBE7074B6E
:10F7C000D3F8102500F01F00C24002F001020232FF
:10F7D0001204F2E7682E0020006000400003005091
:10F7E0001F288ABF054B4FF0A04300F01F00D3F83D
:10F7F000103523FA00F000F00100704700030050BC
:10F800002DE9F047002384B0CDE902331C4AD2F839
:10F810000011012900F03B821E46194BD3F8042148
:10F82000012A00F02582164BD3F80821012A00F0A6
:10F830001082134BD3F80C21012A00F0FB81104BEE
:10F84000D3F81021012A00F0E6810D4BD3F81421E2
:10F85000012A00F0D1810A4BD3F81821012A00F0C7
:10F86000B881074BD3F81C21012A0BD0044BD3F8E5
:10F870007C21012A00F02C8256BB04B0BDE8F08741
:10F8800000600040D3F804231106EFD50022C3F82E
:10F890001C21D3F81C110091D3F87C110098012988
:10F8A00046F0800614D1C3F87C21D3F87C31019353
:10F8B0004FF0A042019BD2F82015CD4B0291C2F827
:10F8C0002015D3F820250392C3F8202546F00046E2
:10F8D000C84F00240125A30003F180432E4203F505
:10F8E000C0434FEA45050BD0D3F8100557F8242044
:10F8F000D3F81015C0F30520C1F3014102B19047C0
:10F900000134082CE7D1002EB7DABA4CB84E0125E5
:10F910004FF0A04794F95A305A1C4BD0C3F3C201A0
:10F9200001F110020DEB020103F0070211F808CCFF
:10F9300005FA02F21CEA020FD9B203F03F0039D0F7
:10F940001F2800F2368103464FF0A04909EB8302DD
:10F9500005FA03F3D2F800C7D2F800E72EF4403ED0
:10F96000C2F800E704EB000ECCF3014C9EF930E046
:10F97000D2F800A754F82E80BCF1020F0CBF4FF450
:10F98000403E4FF4003E4EEA0A0EC2F800E7C9F8C6
:10F990002035B8F1000F0DD08909032900F08C81C2
:10F9A000BCF1020F00F08581BCF1030F02D10229E6
:10F9B00000F0828194F95B30581C4BD0C3F3C20134
:10F9C00001F110020DEB020103F0070211F808CC5F
:10F9D00005FA02F21CEA020FD9B203F03F0039D057
:10F9E0001F2800F2EA8003464FF0A04909EB83028A
:10F9F00005FA03F3D2F800C7D2F800E72EF4403E30
:10FA0000C2F800E704EB000ECCF3014C9EF930E0A5
:10FA1000D2F800A754F82E80BCF1020F0CBF4FF4AF
:10FA2000403E4FF4003E4EEA0A0EC2F800E7C9F825
:10FA30002035B8F1000F0DD08909032900F041816C
:10FA4000BCF1020F00F03A81BCF1030F02D1022990
:10FA500000F0378194F95C30591C4BD0C3F3C201DC
:10FA600001F110020DEB020103F0070211F808CCBE
:10FA700005FA02F21CEA020FD9B203F03F0039D0B6
:10FA80001F2800F29E8003464FF0A04909EB830235
:10FA900005FA03F3D2F800C7D2F800E72EF4403E8F
:10FAA000C2F800E704EB000ECCF3014C9EF930E005
:10FAB000D2F800A754F82E80BCF1020F0CBF4FF40F
:10FAC000403E4FF4003E4EEA0A0EC2F800E7C9F885
:10FAD0002035B8F1000F0DD08909032900F0F68018
:10FAE000BCF1020F00F0EF80BCF1030F02D102293C
:10FAF00000F0EC8094F95D305A1C4AD0C3F3C20187
:10FB000001F110020DEB020103F0070211F808CC1D
:10FB100005FA02F21CEA020FD9B203F03F0038D016
:10FB20001F2852D803464FF0A04909EB830205FA7B
:10FB300003F3D2F800C7D2F800E72EF4403EC2F833
:10FB400000E704EB000ECCF3014C9EF930E0BCF171
:10FB5000020F54F82E80D2F800E70CBF4FF4403A61
:10FB60004FF4003A4EEA0A0EC2F800E7C9F8203511
:10FB7000B8F1000F0DD08909032900F09880BCF17D
:10FB8000020F00F09180BCF1030F02D1022900F0B6
:10FB90008E80D7F820350293C7F82035D6F8202577
:10FBA00003921343C6F820257FF4B4AE04B0BDE839
:10FBB000F08703F01F03B146C8E603F01F03B14608
:10FBC00014E703F01F03B14660E703F01F03B146DB
:10FBD000ABE7D3F8042350067FF543AE0022C3F809
:10FBE0001821D3F818310093009B46F0400638E600
:10FBF00000030050682E0020D3F8042394067FF5FC
:10FC00002AAE0022C3F81421D3F814310093009BCC
:10FC100046F020061FE6D3F80423D5067FF515AE7F
:10FC20000022C3F81021D3F810310093009B46F056
:10FC300010060AE6D3F8042317077FF500AE00226A
:10FC4000C3F80C21D3F80C310093009B46F0080652
:10FC5000F5E5D3F8042352077FF5EBAD0022C3F896
:10FC60000821D3F808310093009B46F00406E0E534
:10FC7000D3F8042391077FF5D6AD0022C3F8042101
:10FC8000D3F804310093009B46F00206CBE5D2F88E
:10FC9000046316F001063FF4C0ADC2F80031D2F89B
:10FCA00000310093009BB8E501297FF472AFC04793
:10FCB0006FE701297FF47EAEC0477BE601297FF420
:10FCC000C9AEC047C6E601297FF414AFC04711E7AB
:10FCD0000022C3F87C21D3F87C3101934FF0A0427D
:10FCE000019BD2F82015064B0291C2F82015D3F8DB
:10FCF00020250392C3F82025002E3FF406AEE5E54B
:10FD000000030050014B1B68184700BFD02E002095
:10FD1000114B98421DD110B582B000230DF10700A0
:10FD20008DF807300C46FDF7A3FF0C4B1A794AB942
:10FD30009DF807001C6001221A71FDF7BFFF00202B
:10FD400002B010BD9DF80700FDF7B8FF112002B00A
:10FD500010BD0020704700BF00200040D02E0020C2
:10FD600010B5714AD2F8043399058AB068D5D2F833
:10FD70002431002B64D00023C2F82431D2F824317E
:10FD800001934FF40171694B0198C2F8081393F87D
:10FD9000291009B901215160634902228DF8182008
:10FDA000D1F88024C1F880249FED5D7B9969D868E3
:10FDB000CDE9081283ED067BD3E90012079006A86F
:10FDC0009047594AD2F81C31C3B1584B5869196A47
:10FDD00088426AD993F8281001F0FF00002964D105
:10FDE000C2F81C01D2F81C11039103999C68186A8F
:10FDF000196A205C01311962C2F81C054A4AD2F81E
:10FE00004431DBB10021494BC2F84411D2F844011E
:10FE100093F829100090009809B1012111609A69A6
:10FE200062B1D8685C6A00210122CDE907049961BA
:10FE30008DF8182006A8D3E9001290470AB010BD2B
:10FE4000394AD2F804335B07BBD5D2F80831002B0E
:10FE5000B7D0364B996900293ED00021C2F808116D
:10FE6000D2F8081104910499D868596AD2F8182573
:10FE700042545A6A996901325A625A6A8A42A0D136
:10FE8000DA69002A31D09A611A69D8685C6ADA6046
:10FE9000002101220894D961596207905C681968B1
:10FEA0008DF8182006A8A0478BE71F4A0020C2F84B
:10FEB0001C01D2F81C210292029A5A69002A9DD094
:10FEC000D3E901215C698DF81800CDE90714586168
:10FED000196806A8904791E7C2F80811D2F80801FE
:10FEE00005900598D2F81825C7E793F8292012B98C
:10FEF0000D4A012151600C4A4FF40171C2F80813F8
:10FF0000D8685C6A0021012299618DF81820D3E934
:10FF10000012CDE9070406A8904752E7AFF300802E
:10FF2000000000000000000000200040D82E00204B
:10FF30002DE9F041734F06792C2303FB067382B041
:10FF400093F82A30002B40F09E8005460C4600684E
:10FF50006D499046FFF7DCFE002840F09080236852
:10FF6000591C19D01F2B4FF001028ABF67494FF06F
:10FF7000A04103F01F0302FA03F3C1F80835236818
:10FF80001F2B86BF03F01F03604A4FF0A04203F50A
:10FF9000E073032142F8231063685A1C0BD01F2B17
:10FFA00086BF03F01F03594A4FF0A04203F5E073E8
:10FFB000002142F823102B68A269C3F82425227D72
:10FFC000637D13432A68C2F86C35D4E900122B68AC
:10FFD000C3F81425C3F80C15237D012B5ED02C2308
:10FFE00006FB03F3FA18C2F804802269FA50B8F14C
:10FFF000000F2DD02B68227F0021C3F81C11D3F8ED
:020000022000DC
:100000001C310093009B2B68C3F84411D3F8443192
:100010000193019B2B683E49C3F804132B6843F3FB
:100020000733002B33DB03F16043520103F56143D7
:10003000D2B283F800232B6843F30732002A08DB8F
:1000400034495409012302F01F02934041F824303F
:100050002B680422C3F800252C2303FB06F606F1C7
:10006000180200233E44B918BB5001224B6086F8A9
:100070002930736186F82A2002B0BDE8F081112092
:1000800002B0BDE8F081082002B0BDE8F08122494D
:1000900003F00F035201D2B2CA54CCE7A368591C33
:1000A0000BD01F2B86BF03F01F0318494FF0A04150
:1000B00003F5E073002241F82320E3685A1C1AD0AC
:1000C0001F2B8ABF11494FF0A04103F01F030122EB
:1000D00002FA03F3C1F80835E3681F2B88BF03F069
:1000E0001F0303F5E0738CBF08494FF0A0410322C2
:1000F00041F82320E3682A68A168C2F80835C2F8ED
:1001000010156CE7D82E002061FD0100000300509F
:100110008000020000E100E014ED00E02DE9F04174
:10012000334C90F804E02C2303FB0E4384465869BB
:1001300084B000284ED15A619960186283F8280073
:10014000DCF80020C2F81C01D2F81C210292029AAD
:10015000DCF8002001219160DCF800209D68C2F8E5
:100160001C01D2F81C1101910199196A6E5C196A7F
:1001700001311962C2F81C655A6812B104B0BDE8B9
:10018000F0815E691A6ADCF8001096421BD90746B6
:1001900002E093F828200ABBD1F81C21002AF8D0ED
:1001A000C1F81C71D1F81C210392039A1A6A15F840
:1001B00002801A6A01321A62C1F81C851A6A9642D4
:1001C000EAD8DCF80010D1F81C31002BFBD0012359
:1001D000CB6004E0112004B0BDE8F0810F202C2397
:1001E00003FB0E4300225A6104B0BDE8F08100BF5A
:1001F000D82E00200279044B2C2101FB02335869D0
:10020000003818BF01207047D82E0020F0B4564E99
:1002100090F804C02C2303FB0C6386B05C68F4B137
:1002200005689C694FF40177C5F80873D4B1DB69A0
:10023000002B40F095802C2303FB0C631961DA61DD
:100240002C2202FB0C625368002B2ED003684FF463
:100250000172C3F80423002006B0F0BC70479C690B
:10026000002C73D12C2303FB0C639A610022D9600C
:100270005A62DA6193F82930002BE1D10268C2F8A2
:100280002431D2F82421019202680199C2F8083180
:10029000D2F8083102930368029901221A602C22D5
:1002A00002FB0C625368002BD0D10168C1F84431C5
:1002B000D1F844310393039B0368D3F82451D3F856
:1002C0000841D3F844113CB921B32C2303FB0C6340
:1002D0009C6135BB0F20BFE7F5B999B9946914B398
:1002E000C3F80811D3F808410494049CD568546AF3
:1002F000D3F818352B55536A946901335362536A06
:100300009C42D9D82C2303FB0C6300229A6100295C
:10031000E0D111E0002DD0D02C2303FB0C63002290
:100320009A61032098E7C3F80841D3F808110591B2
:100330000599D3F81835536A2C2303FB0C6393F803
:1003400029304BB1036801221A6084E7DB69002B76
:100350003FF471AF11207FE7036801225A607AE70A
:100360000368C3F80473F5E7D82E002000000000EE
:1003700010B55B4BD3F824218AB0002A58D0002254
:10038000C3F82421D3F82411049102228DF81820F7
:100390000499544AD3F88014C3F880149FED4E7B1F
:1003A0000991D3F83C45D06882ED067BCDE907047E
:1003B000D2E9001306A89847494BD3F8442152B11B
:1003C0000021484AC3F84411D3F8440191690390CD
:1003D0000398002961D1424BD3F8202162B100205B
:1003E000C3F82001D3F82021029201213D4A029C4A
:1003F000D9605169002943D1394BD3F85821AAB1AA
:100400000020C3F85801D3F85811364A01910199D8
:10041000516959B1D3F84C458DF81800D2E9013132
:100420005061CDE9071406A8116898470AB010BDBD
:10043000D3F810110029BFD0C3F81021D3F8101140
:10044000284C05910599A169D3F83C058842B3D1A0
:10045000E169002933D0C4E90612D3F8002222F062
:100460002002C3F80022E2680792012122698DF878
:100470001810089063682168E26006A898479BE717
:10048000D3F84C458DF81800D2E901315061CDE91F
:10049000071406A811689847AEE79FED0F7BD3F8C5
:1004A0003C45D0684FF0010CCDE9070482ED067B96
:1004B000D2E900138DF818C006A898478BE7E268C8
:1004C000A1610123CDE907208DF8183006A8D4E9F1
:1004D0000013984770E700BF000000000000000014
:1004E00000200040082F00202DE9F0430779DFF8B5
:1004F000148207EBC70308EB830387B093F820301F
:10050000002B40F0B58004460D46006878499146BE
:10051000FFF7FEFB002840F0A7802B68591C4FEA2C
:10052000C70619D01F2B4FF001028ABF71494FF047
:10053000A04103F01F0302FA03F3C1F808352B684A
:100540001F2B86BF03F01F036A4A4FF0A04203F53A
:10055000E073032142F823106B685A1C0BD01F2B49
:1005600086BF03F01F03634A4FF0A04203F5E07318
:10057000002142F823102368A969C3F824152B7DB4
:100580006A7D1A432368C3F86C25D5E900312268D7
:10059000C2F80C35C2F814152B7D012B73D0F2195B
:1005A00008EB8203C3F804902B6948F82230B9F1B4
:1005B000000F43D021682A7F0023C1F81031D1F801
:1005C0001011019101992168C1F82031D1F8201151
:1005D000029102992168C1F82431D1F824110391C4
:1005E00003992168C1F84431D1F844110491049968
:1005F0002168C1F85831D1F858310593059B23681B
:100600003D49C3F80413236843F30733002B33DB5E
:1006100003F16043520103F56143D2B283F8002332
:10062000216841F30733002B09DB34495D090122BE
:1006300003F01F0302FA03F341F8253021683E441A
:10064000B60006F118020023464408EB0204082510
:10065000C1F8005548F8023001226360736186F8E2
:10066000202007B0BDE8F083112007B0BDE8F0837B
:10067000082007B0BDE8F083214903F00F035201C1
:10068000D2B2CA54CCE7AB68591C0BD01F2B86BF23
:1006900003F01F0317494FF0A04103F5E073002258
:1006A00041F82320EB685A1C1AD01F2B8ABF11492E
:1006B0004FF0A04103F01F03012202FA03F3C1F837
:1006C0000835EB681F2B88BF03F01F0303F5E073A9
:1006D0008CBF08494FF0A041032241F82320EB686A
:1006E0002268A968C2F80835C2F8101557E700BF9C
:1006F00071030200000300501003420000E100E01B
:1007000014ED00E0082F002001F0604CBCF1005F08
:1007100030D170B590F804E0254C0EEBCE0C04EB14
:100720008C0C0346DCF8140082B04FEACE0500289A
:1007300038D1CCF81420CCF808101A68C2F820017F
:10074000D2F820210192019A1A68C2F85801D2F811
:1007500058210092009A1A68DCF81460C2F8441517
:10076000C2F848651A6801219160DCF804201AB1CA
:1007700002B070BD102070471968D1F82021D1F85F
:1007800058010243F9D080B90122CA601A68D2F830
:100790005831002BFBD0754404EB850400236361C2
:1007A00002B070BD112002B070BD0F20F3E700BF92
:1007B000082F00200379054A03EBC30302EB8302F1
:1007C0005069003818BF0120704700BF082F002073
:1007D00001F06043B3F1005F4ED170B590F804E0D2
:1007E0004C4C0EEBCE0C04EB8C0C82B0DCF80450BD
:1007F0004FEACE03002D5FD006684FF40475C6F8AB
:100800000853DCF81860002E38D0DCF81C60002E8D
:100810007AD1734404EB830300251961DA6103681C
:10082000C3F81051D3F810310193019B0368C3F84A
:100830004451D3F8443100930368009DC3F8341544
:10084000C3F838250268D2F8003243F02003C2F81A
:10085000003290F804C00CEBCC0304EB83034FEAA6
:10086000CC055B68002B30D003684FF40472C3F8EA
:100870000423002002B070BD10207047734404EBC5
:10088000830300259A61DD61D9600368C3F81051C4
:10089000D3F810310193019B0368C3F84451D3F896
:1008A000443100930368009DC3F83415C3F838251C
:1008B000036801221A60CCE7DCF81850002DDDD067
:1008C000DCF81C50002DA4D021E0026800E0A8B99B
:1008D000D2F81031D2F84411D2F824010B43F6D0EB
:1008E00000284FF00003654418BF032004EB850483
:1008F000994218BF0F20A36102B070BD654404EB9C
:1009000085050320AB61B5E70368C3F804531120E4
:10091000B0E700BF082F00200220FEF781BB00BF18
:100920002DE9F04706460D46FEF7A8FB012801D940
:10093000BDE8F087012D04461FD0022D17D0002DF1
:10094000F6D11C48FCF7ECFF1B4B1C4A04EB44019E
:100950000B44125D9D78AA42EAD1002DE8D0184BD5
:100960001B68002BE4D02846BDE8F0471847124B1F
:1009700000EB400423445D78EFE70F4F00EB4003AA
:10098000FA18FD5C53784FEA40082BB9A04447445D
:100990000A4BBA781A55E0E7DFF8289005484A462E
:1009A0004FF48041FCF760FF0028EFD189F8006028
:1009B000ECE700BF50260020302F00202C2F002015
:1009C000382F00202E2F002010B50078FEF756FBA0
:1009D000012800D910BD074B00EB400003445878B4
:1009E0000028F7D0044B1B68002BF3D0BDE8104063
:1009F000184700BF302F0020382F002070B5BC4EA4
:100A00003378054673B1BB4B1B7800243470002B40
:100A10004DD0022C08BF032420460134FEF78EFA85
:100A20000A2CF6D1172D61D8DFE815F0E800630035
:100A30006300FE002901810095007A005000440007
:100A400050004400E20018001800180018001800B8
:100A5000A300B600CC0011015C005C00A648FCF7C6
:100A60005FFFD5F11105044600F02C81002840F00D
:100A70002981012D14D0C82303FB05F521464FF42D
:100A800000434FF47A70C5FB03014FF4FA62002370
:100A900003F09AFC224601469748FCF7E5FE04461F
:100AA0000220FEF739FA934B01221A701FE0FEF77D
:100AB00057FAB7E701203070FEF7B2FABDE8704090
:100AC0008E4800224FF40051FCF7CEBE012030705A
:100AD000FEF7A6FABDE870408848002240F2666141
:100AE000FCF7C2BEFEF76CFA854B1D700024204651
:100AF00070BD0020FEF7FCF9002840F0CC80FEF726
:100B00000BFA40F6CD4141F69A13022D18BF194653
:100B10007B4B7A481D70BDE870400022FCF7A4BEF4
:100B20000020FEF7F9F9764B07221A70DEE7002065
:100B3000FEF7DEF9002800F0C2800020FEF7FEF983
:100B40006F4B6E4805241C70BDE87040002240F6D3
:100B5000CD41FCF789BE0020FEF762FA684B67487A
:100B600006241C70BDE87040002240F26661FCF76C
:100B70007BBE604B1B78002B00F0B4800024022C5D
:100B800008BF032420460134FEF7D8F90A2CF6D119
:100B90005B4B12221A70A9E7564B1B78002B00F012
:100BA0009E800024022C08BF032420460134FEF757
:100BB000C5F90A2CF6D10020FEF7AEF9504B1322EE
:100BC0001A7093E74B4B1B78002B00F085800024B4
:100BD000022C08BF032420460134FEF7AFF90A2C8B
:100BE000F6D10120FEF798F9454B14221A707DE7E3
:100BF000FEF7E6F9424B0C221A7077E73D4B1B7863
:100C0000002B72D00024022C08BF0324204601349C
:100C1000FEF794F90A2CF6D13848FCF781FE384BE0
:100C2000002204461A7062E70020FEF761F90028EE
:100C300040D00020FEF782F943F23331304B0324D9
:100C40001C70BDE870402D480022FCF70DBE294BFA
:100C50001B78002B3DD00024022C08BF0324204623
:100C60000134FEF76BF90A2CF6D10020FEF754F997
:100C70000120FEF751F9224B15221A7036E70020A9
:100C8000FEF736F988B10020FEF758F94FF48031AD
:100C90001B4B0424D4E70020FEF750F9022D47F245
:100CA000333118BF4FF4803132E7FEF735F941F6A2
:100CB0009A11EDE7FEF730F940F6CD41BEE7FEF7B9
:100CC0002BF93DE70220FEF739F90A4B00221A7092
:100CD0000DE7FEF745F9C8E7FEF742F981E7FEF7B1
:100CE0003FF968E7FEF73CF952E7FEF739F993E779
:100CF000442F00203C2F002070260020902600204A
:100D0000452F0020044B1B68DB0700D47047034BC2
:100D10001878FFF773BE00BF402F0020452F00203A
:100D2000012801D900207047FEF794B9044B1B68D5
:100D300013F0010301D118467047FFF75FBE00BFF3
:100D4000402F002038B5224B224A19608107044603
:100D5000106004D410F0010528D1284638BD1E4B80
:100D60001E480E210F221970DA70022140F2333230
:100D7000FCF7A4FA054630B1E207EED50120FEF7F4
:100D80008DF9284638BDFCF7F5FA05460028F3D161
:100D90000146134A1348FCF74FFDE3070546DCD52F
:100DA0000120FEF77BF9002DD7D102E00120FEF7EC
:100DB00075F90D4A0D480021FCF73EFD0546002857
:100DC000CBD1BDE838400A4A0A480121FCF734BDBE
:100DD000382F0020402F0020302F0020444E0200EA
:100DE000C9090200544E0200050D02005C4E0200CB
:100DF00019090200584E0200012806D8012A06D01F
:100E000001291BD0022908D071B1072070470129A0
:100E100011D002294FF00002F6D10B4B00EB40003D
:100E2000034400205A707047074B00EB4000034416
:100E30009A700020704700F10E02D2B2024B00EB14
:100E400040001A54F5E700BF302F0020012801D9D7
:100E50000620704708B5FEF71BF91F2886BF0A4B0E
:100E600000F01F004FF0A04303EB80030020D3F8F5
:100E7000002722F44032C3F80027D3F8002742F4B9
:100E80004032C3F8002708BD0003005010B50388A6
:100E9000102B07D0112B04D1254B1868013818608E
:100EA00030B110BD224C216811B30131216010BD59
:100EB00001220221FFF7A0FF40B1072806D01D4BF9
:100EC0001B68002BEDD0BDE8104018470722022117
:100ED0000120FFF791FF08B10728F0D100210A2275
:100EE0000846FFF789FF0028DBD00728D9D0E6E7BE
:100EF00001220846FFF780FF38B1072805D00D4BC7
:100F00001B6803B198472168CFE70722022101201F
:100F1000FFF772FF08B10728F1D104220221002057
:100F2000FFF76AFF0028EED00728ECD0E7E700BF04
:100F3000482F00204C2F002008B50020FFF786FF27
:100F400010B1062800D008BD0120FFF77FFF002860
:100F5000F9D0062808BF002008BD00BF184B10B507
:100F6000186031B101200C46FFF7DAFEF8B1022318
:100F70002370144B186808B1002010BD0122022113
:100F8000FFF73AFF08B10728F7D107220221012015
:100F9000FFF732FF08B10728EFD100210A220846E7
:100FA000FFF72AFF0028E7D00728E5D010BDFFF79C
:100FB000B7FE10B10B232370DBE72070D9E700BF29
:100FC0004C2F0020482F002038B5064D0C462246F5
:100FD0000146284602F0C1FBA1B22846BDE83840D0
:100FE00000F038B9502F002008B5024800F094F9FD
:100FF000FEE700BFC90F020076DF70477ADF704757
:101000007CDF70477FDF70478FDF7047B1DF70474D
:1010100033DF7047704700BFFCF7C2B910B50388D3
:10102000212B82B0044613D80F2B0FD9103B112B64
:101030000CD8DFE803F028400B500B0B0B0B0B0B0D
:101040000B0B0B0B0B0B0B1C3B2B05D002B010BD7D
:10105000522B4AD0562BF7D1A0881321FFF7CCFF93
:101060000028F3D002B0BDE81040FCF799B9002386
:101070008088ADF8043001A9FFF7C6FF0028E5D04D
:10108000FCF78EF9E2E71F4B1F482049C01AC00841
:10109000000440F00300FBF74DFD0720FFF746FE7C
:1010A00000282CD11A4BA1881A48198001F0A8FDFC
:1010B0000028CBD0D6E7134B13481749C01AC008F5
:1010C000000440F00300FBF735FD114B4FF6FF72B3
:1010D0001A8002B010BD0E4A0023108885211A46DE
:1010E000FFF790FF0028B1D0BCE7094A0023108821
:1010F00019461A46FFF78AFF0028A7D0B2E7FCF787
:101100004FF9CFE71055020038550200604E02003B
:10111000B6260020403400206C4E020008B503784B
:1011200003B108BD054B3B211888FFF765FF002878
:10113000F7D0BDE80840FCF733B900BFB626002061
:10114000072808B51CD00A280ED0042800D008BDF6
:10115000154B13211888FFF74FFF30F00803F6D026
:10116000BDE80840FCF71CB90020FFF7DFFDB8B967
:10117000FFF7E2FE88B9FFF74BFF0028F0D108BD6A
:10118000094A12884FF6FF739A42E0D1074801F0EE
:1011900019F830F00803E3D1D9E7FCF701F9EAE7E1
:1011A000FCF7FEF8E4E700BFB62600204833002035
:1011B0000D4B4A881B889A4200D070470A8840F637
:1011C00077239A42F9D1094A09488B880949801A3C
:1011D000033B094AC0089BB20004138040F003009F
:1011E0001A46FBF7E5BA00BFB626002010550200EC
:1011F000385502007C4E0200B4260020037823B943
:10120000024B818A1B6800691847704764340020CC
:10121000FCF7C6B808B530B1032803D10220FFF7A8
:1012200085FD50B908BDFFF781FD50B9FFF784FE79
:1012300068B9FFF7EDFE0028F4D0BDE80840FCF7E0
:10124000AFB8FCF7ADF8FFF777FE0028F1D0FCF758
:10125000A7F8EEE72DE9F04F85B0019189B3284C4E
:10126000DFF8A4A094F800C0DFF8A490DFF8A48011
:10127000451E4FF0000B0CF1010215F8011F0AF892
:101280000C105FFA82FC0AEB0C0284F800C012F822
:10129000012C0A2A09D00D2A07D0019B5A1E5A4553
:1012A00003D0184A1288624506D8BCF1000F0BD152
:1012B0004FF0000C84F800C0019B0BF1010B5B4563
:1012C000D9D105B0BDE8F08F0F4F104EB9F80030FE
:1012D000ADF80EC00DF10E023946304601F026FE83
:1012E000082828FA00F3E3D0132801D8DB0702D43A
:1012F000FCF756F8DCE71328DAD194F800C0E5E7EC
:1013000044330020B426002050320020B8260020AC
:10131000B62600202100080030B5B1B04FF480732C
:10132000A24C02930493A24B0193A24B0393054654
:101330000FCC0DF1140CACE80F0094E803009E4AAA
:101340008CE80300072301A905A8FCF7B7FB0028D8
:1013500040F0D2804FF480410020FBF7B3F8002822
:1013600040F0D480FBF79EF8FCF72EFA002840F0FE
:10137000D68092490320FFF7E5FC002840F0D88092
:1013800005A90020FFF7EAFD002840F0DA80FDF70C
:1013900041FC002840F0DC8001F086FE002840F08F
:1013A000DE80002305A90120059301F0DFFE00285F
:1013B00040F0F98005A801F0B1FF002840F0F0806E
:1013C00011237F488DF8043002F0D5F97C4982B2B0
:1013D00001A8FFF715FE002840F0DF800822002159
:1013E00005A802F03CF9774A4FF0C87305A8CDE98B
:1013F0000523FFF703FE002840F0CC8072497348B4
:1014000001F0DEFA002840F0C2807048F72101F0B8
:10141000EFFA002840F0B8806D4B6E48059305A99F
:1014200001F0DCFB002840F0AC80042200210DEB31
:10143000020002F014F9684B6848019301A901F019
:1014400003FD002840F09A80AC22002105A802F09C
:1014500006F901236249199102204021ADF860305C
:101460008DF8903044F250635E4A8DF81400279155
:1014700028935D482E924FF4A06305A9ADF816306D
:1014800000F0DAFD002876D15748012100F0D0FDA8
:101490001C22002105A802F0E2F80023534A544917
:1014A00005934FF4A0300690ADF822308DF824302B
:1014B0000B9203234FF4F02205A80A9107928DF8AE
:1014C000203000F0DFFF002852D14A4802F072F8C5
:1014D000494A4A4B4A499B1ADB081B0443F0030064
:1014E000FBF728FB4048032100F020FE002839D1FB
:1014F000444B1D6031B030BDFBF752FF4FF48041CB
:101500000020FAF7DFFF00283FF42CAFFBF748FF7D
:10151000FAF7C8FFFCF758F900283FF42AAFFBF7A9
:101520003FFF26490320FFF70DFC00283FF428AFBA
:10153000FBF736FF05A90020FFF710FD00283FF458
:1015400026AFFBF72DFFFDF765FB00283FF424AF26
:10155000FBF726FF01F0A8FD00283FF422AFFBF7C0
:101560001FFF1EE7FBF71CFF264B1D6031B030BD8F
:10157000FBF716FFA9E7FBF713FF85E7FBF710FF63
:1015800062E7FBF70DFF50E7FBF70AFF44E7FBF7C5
:1015900007FF3AE7FBF704FF30E7FBF701FF1DE722
:1015A000FBF7FEFE0CE7FBF7FBFE03E7E44E020051
:1015B000503100205030002015100200411102006F
:1015C000984E020010003C00B11102004C34002083
:1015D0001910020040340020FD110200B82600203E
:1015E000B02600201512020048330020111202001C
:1015F0001D110200A44E02001055020038550200D1
:10160000B84E0200643400202DE9F04FDFF89C91C1
:1016100000EB400609EBC60683B0F76A012F80464F
:101620008B4692464FEA400507D0022F54D04FB365
:101630000027384603B0BDE8F08FB76A746AA74246
:1016400040F28580013F3F1B366A574528BF574609
:10165000321B974280F0868008F1010303EB4303BD
:1016600009EBC303594658683A4620443C4402F00B
:1016700074F8454409EBC5093846C9F8244003B05D
:10168000BDE8F08FB36A746AA3429CBF326A9B18AC
:10169000013B1B1B9A45CCD82B1809EBC3031F6ACF
:1016A0003A1B924576D3461C06EB460609EBC60666
:1016B00001927068204402F050F85444019A706816
:1016C000E41B0BEB0201224602F047F8454409EB0C
:1016D000C50557466C62ACE700F1010808EB480805
:1016E000756A4FEAC8080027B36AAB4203F1FF32BC
:1016F00022D9346A531B534509EB0802A4EB0504B5
:1017000028BF53469C42506828BF1C46284459466F
:10171000224602F022F8336A25449D42AAEB040ACD
:101720002744A3440DD07562BAF1000F81D0B36A8B
:10173000AB4203F1FF32DCD8346A2344013B5B1B2C
:10174000D9E700257562BAF1000FCDD171E7366A8D
:101750003744013F3F1B574528BF5746321B97422E
:10176000FFF47AAF08F1010A0AEB4A0A09EBCA0A48
:101770005946DAF804000192204401F0EEFFBE1B46
:10178000019ADAF8040034440BEB0201224601F01E
:10179000E4FF6EE7431C03EB430309EBC30352462C
:1017A00058682044544401F0D8FF8FE77836002071
:1017B00010B5134A134C14481449C4E906204FF4D9
:1017C00000709FED0D7B206211480023C4E91220B8
:1017D0001022E01DA3626362E362A3656365E365B3
:1017E00084ED047B226501F0B0FF0A49204601F038
:1017F000ACFF2023A37110BD020000000200000016
:10180000FC4E02007836002078340020084F020099
:10181000683400200C4F02006DDF704779DF70479D
:101820007DDF704764DF70472DE9F04F85B0984643
:101830000E9D0388BDF83C9016462A880192002B25
:1018400038D0002704468A46BB4602E022885A4523
:1018500026DD616851F82B00039000220DF10B0189
:1018600003A80BF1010BFFF7DDFF20BB9DF80B2058
:10187000B242EBD12A880DF10B0103A8F7B1B718DA
:101880004F4529DC4244FFF7CDFFA0B929889DF8D8
:101890000B200A442A8022885A454FF00107D8DCE1
:1018A00047B12B88019A013B9B1A9BB2FF2B13D89F
:1018B00008F80230002005B0BDE8F08F571C324414
:1018C00002324A45BFB207DC2F8008F807A02A88F9
:1018D000013292B22A80D5E70C2005B0BDE8F08F26
:1018E0002DE9F04700231788138090F82D3086B03B
:1018F000144606460D46002B40F0CC80B278002AF4
:1019000040F0F980F278A2B1D91CB94200F28B8183
:101910000221E954238801210B449BB22380E9541E
:1019200023880B449BB22380EA5423880B449BB248
:1019300023807268AAB192F90010DA1CBA4200F250
:1019400072810222EA54238801339BB20A22238047
:10195000EA54238801339BB22380E954238801335E
:1019600023803389002B40F0E880338A002B40F03D
:10197000FE80338B002B40F09881336A002B45D0DA
:10198000B4F800E00EF10602BA4200F24C811A8867
:10199000052A40F284816FF4486802EB080189B29D
:1019A0004FF27D30814240F27A815988052940F218
:1019B00076816FF4486C8C441FFA8CFC844540F2AD
:1019C0006E814FF6FF70824202D08A4200F2678138
:1019D000052205F80E202288013292B212212280BF
:1019E000A9542288013292B222801988A9542A442B
:1019F000090A51702288023292B222805B88AB546D
:101A00002A441B0A5370238802332380736A002BF5
:101A100031D09988B4F800C0881C0CF1020202444D
:101A2000BA4200F20081FE2800F2FD80033105F881
:101A30000C102288013292B2FF212280A954228800
:101A4000013292B222801988A9542A44090A51709D
:101A50002088023080B220809A8862B1996803930E
:101A6000002900F01C81284401F077FE039B9A882E
:101A700023881344238096F82C30002B40F091806B
:101A80003378002B40F0D5804FF00008404606B078
:101A9000BDE8F087082F40F2C68004A8FFF7BCFE1F
:101AA00080460028F2D123880822EA542388013393
:101AB0009BB21B222380EA542088013080B2062288
:101AC00020800DF11101284401F047FE23889DF884
